:020000020000FC
:10000000209A28988FE78AB927EC20937A0020E677
:1000100020937C00409A519A59985098589A0F937F
:100020001F9307E610E00093C4001093C50008E199
:100030000093C10006E00093C2001F910F9120E0E1
:1000400010E080E00091C00007FF03C00091C600EF
:1000500001C000E05133D1F15033D1F120917A0049
:10006000206420937A0020917A0026FDFCCF209115
:100070007800109179001A3F10F43CF0E3CF80E053
:1000800089B18078803010F523C028980F930F93A2
:100090000091C00005FFFCCF0F91092F0093C6000F
:1000A0000F930091C00005FFFCCF0F910F912F938C
:1000B0008F939F932AEF8EE39CE90197F1F72A959E
:1000C000D1F700009F918F912F91BCCF289ABACF82
:0400D0002898B8CFE5
:00000001FF
